{
  "contractName": "FileContract",
  "abi": [
    {
      "inputs": [
        {
          "internalType": "bool",
          "name": "_isRestrictedToOwner",
          "type": "bool"
        },
        {
          "internalType": "string",
          "name": "_fileLocation",
          "type": "string"
        },
        {
          "internalType": "string",
          "name": "_fileHash",
          "type": "string"
        }
      ],
      "stateMutability": "nonpayable",
      "type": "constructor"
    },
    {
      "inputs": [],
      "name": "fileHash",
      "outputs": [
        {
          "internalType": "string",
          "name": "",
          "type": "string"
        }
      ],
      "stateMutability": "view",
      "type": "function",
      "constant": true
    },
    {
      "inputs": [],
      "name": "fileLocation",
      "outputs": [
        {
          "internalType": "string",
          "name": "",
          "type": "string"
        }
      ],
      "stateMutability": "view",
      "type": "function",
      "constant": true
    },
    {
      "inputs": [],
      "name": "owner",
      "outputs": [
        {
          "internalType": "address",
          "name": "",
          "type": "address"
        }
      ],
      "stateMutability": "view",
      "type": "function",
      "constant": true
    },
    {
      "inputs": [
        {
          "internalType": "string",
          "name": "_fileLocation",
          "type": "string"
        }
      ],
      "name": "changeFileLocation",
      "outputs": [],
      "stateMutability": "nonpayable",
      "type": "function"
    }
  ],
  "bytecode": "0x6080604052336000806101000a81548173ffffffffffffffffffffffffffffffffffffffff021916908373ffffffffffffffffffffffffffffffffffffffff1602179055503480156200005157600080fd5b5060405162000a6938038062000a69833981810160405281019062000077919062000356565b82600060146101000a81548160ff0219169083151502179055508160019080519060200190620000a9929190620000cc565b508060029080519060200190620000c2929190620000cc565b5050505062000455565b828054620000da906200041f565b90600052602060002090601f016020900481019282620000fe57600085556200014a565b82601f106200011957805160ff19168380011785556200014a565b828001600101855582156200014a579182015b82811115620001495782518255916020019190600101906200012c565b5b5090506200015991906200015d565b5090565b5b80821115620001785760008160009055506001016200015e565b5090565b6000604051905090565b600080fd5b600080fd5b60008115159050919050565b620001a78162000190565b8114620001b357600080fd5b50565b600081519050620001c7816200019c565b92915050565b600080fd5b600080fd5b6000601f19601f8301169050919050565b7f4e487b7100000000000000000000000000000000000000000000000000000000600052604160045260246000fd5b6200022282620001d7565b810181811067ffffffffffffffff82111715620002445762000243620001e8565b5b80604052505050565b6000620002596200017c565b905062000267828262000217565b919050565b600067ffffffffffffffff8211156200028a5762000289620001e8565b5b6200029582620001d7565b9050602081019050919050565b60005b83811015620002c2578082015181840152602081019050620002a5565b83811115620002d2576000848401525b50505050565b6000620002ef620002e9846200026c565b6200024d565b9050828152602081018484840111156200030e576200030d620001d2565b5b6200031b848285620002a2565b509392505050565b600082601f8301126200033b576200033a620001cd565b5b81516200034d848260208601620002d8565b91505092915050565b60008060006060848603121562000372576200037162000186565b5b60006200038286828701620001b6565b935050602084015167ffffffffffffffff811115620003a657620003a56200018b565b5b620003b48682870162000323565b925050604084015167ffffffffffffffff811115620003d857620003d76200018b565b5b620003e68682870162000323565b9150509250925092565b7f4e487b7100000000000000000000000000000000000000000000000000000000600052602260045260246000fd5b600060028204905060018216806200043857607f821691505b602082108114156200044f576200044e620003f0565b5b50919050565b61060480620004656000396000f3fe608060405234801561001057600080fd5b506004361061004c5760003560e01c806324c8c6981461005157806328c992301461006f5780638da5cb5b1461008b578063b2ee7ddc146100a9575b600080fd5b6100596100c7565b604051610066919061035d565b60405180910390f35b610089600480360381019061008491906104c8565b610155565b005b61009361016f565b6040516100a09190610552565b60405180910390f35b6100b1610193565b6040516100be919061035d565b60405180910390f35b600280546100d49061059c565b80601f01602080910402602001604051908101604052809291908181526020018280546101009061059c565b801561014d5780601f106101225761010080835404028352916020019161014d565b820191906000526020600020905b81548152906001019060200180831161013057829003601f168201915b505050505081565b806001908051906020019061016b929190610221565b5050565b60008054906101000a900473ffffffffffffffffffffffffffffffffffffffff1681565b600180546101a09061059c565b80601f01602080910402602001604051908101604052809291908181526020018280546101cc9061059c565b80156102195780601f106101ee57610100808354040283529160200191610219565b820191906000526020600020905b8154815290600101906020018083116101fc57829003601f168201915b505050505081565b82805461022d9061059c565b90600052602060002090601f01602090048101928261024f5760008555610296565b82601f1061026857805160ff1916838001178555610296565b82800160010185558215610296579182015b8281111561029557825182559160200191906001019061027a565b5b5090506102a391906102a7565b5090565b5b808211156102c05760008160009055506001016102a8565b5090565b600081519050919050565b600082825260208201905092915050565b60005b838110156102fe5780820151818401526020810190506102e3565b8381111561030d576000848401525b50505050565b6000601f19601f8301169050919050565b600061032f826102c4565b61033981856102cf565b93506103498185602086016102e0565b61035281610313565b840191505092915050565b600060208201905081810360008301526103778184610324565b905092915050565b6000604051905090565b600080fd5b600080fd5b600080fd5b600080fd5b7f4e487b7100000000000000000000000000000000000000000000000000000000600052604160045260246000fd5b6103d582610313565b810181811067ffffffffffffffff821117156103f4576103f361039d565b5b80604052505050565b600061040761037f565b905061041382826103cc565b919050565b600067ffffffffffffffff8211156104335761043261039d565b5b61043c82610313565b9050602081019050919050565b82818337600083830152505050565b600061046b61046684610418565b6103fd565b90508281526020810184848401111561048757610486610398565b5b610492848285610449565b509392505050565b600082601f8301126104af576104ae610393565b5b81356104bf848260208601610458565b91505092915050565b6000602082840312156104de576104dd610389565b5b600082013567ffffffffffffffff8111156104fc576104fb61038e565b5b6105088482850161049a565b91505092915050565b600073ffffffffffffffffffffffffffffffffffffffff82169050919050565b600061053c82610511565b9050919050565b61054c81610531565b82525050565b60006020820190506105676000830184610543565b92915050565b7f4e487b7100000000000000000000000000000000000000000000000000000000600052602260045260246000fd5b600060028204905060018216806105b457607f821691505b602082108114156105c8576105c761056d565b5b5091905056fea264697066735822122096adcaafb8926f7122af35e529c3c7499e89f8486ee752d1c0eda2a41ee75dc864736f6c63430008090033",
  "immutableReferences": {},
  "source": "// SPDX-License-Identifier: MIT\r\npragma solidity 0.8.9;\r\n\r\ncontract FileContract {\r\n  // properties\r\n  address public owner = msg.sender;\r\n  bool private isRestrictedToOwner;\r\n\r\n  // the field fileHash can stay public since the only way to change the value is through a function which there isn't\r\n  string public fileLocation;\r\n  string public fileHash;\r\n\r\n  // constructor\r\n  constructor(bool _isRestrictedToOwner, string memory _fileLocation, string memory _fileHash) {\r\n    isRestrictedToOwner = _isRestrictedToOwner;\r\n    fileLocation = _fileLocation;\r\n    fileHash = _fileHash;\r\n  }\r\n\r\n  // modifiers\r\n  modifier restricted() {\r\n    require(\r\n      msg.sender == owner || !isRestrictedToOwner,\r\n      \"This function is restricted to the contract's owner\"\r\n    );\r\n    _;\r\n  }\r\n\r\n  // functions\r\n  function changeFileLocation(string memory _fileLocation) public {\r\n    fileLocation = _fileLocation;\r\n  }\r\n\r\n  // note: tried to implement a toString() method for test purposes but putting strings togehter is pretty difficult\r\n  //       already tried:  string(abi.encodePacked(str1, str2));\r\n}\r\n",
  "sourcePath": "D:\\Documents\\GitHub\\Diplomarbeit\\Solidity Beispiele Moritz Troestl\\Solidity Smart Contract Files\\contracts\\fileContract.sol",
  "compiler": {
    "name": "solc",
    "version": "0.8.9+commit.e5eed63a.Emscripten.clang"
  },
  "schemaVersion": "3.4.3",
  "updatedAt": "2021-10-07T07:28:51.776Z",
  "networkType": "ethereum",
  "devdoc": {
    "kind": "dev",
    "methods": {},
    "version": 1
  },
  "userdoc": {
    "kind": "user",
    "methods": {},
    "version": 1
  }
}