{
  "contractName": "FileManager",
  "abi": [
    {
      "inputs": [
        {
          "internalType": "bool",
          "name": "_isRestrictedToOwner",
          "type": "bool"
        },
        {
          "internalType": "string",
          "name": "_name",
          "type": "string"
        },
        {
          "internalType": "string",
          "name": "_fileLocation",
          "type": "string"
        },
        {
          "internalType": "uint256",
          "name": "_alarm",
          "type": "uint256"
        },
        {
          "internalType": "string",
          "name": "_fileHash",
          "type": "string"
        }
      ],
      "stateMutability": "nonpayable",
      "type": "constructor"
    },
    {
      "anonymous": false,
      "inputs": [
        {
          "indexed": true,
          "internalType": "address",
          "name": "_owner",
          "type": "address"
        },
        {
          "indexed": false,
          "internalType": "string",
          "name": "_name",
          "type": "string"
        },
        {
          "indexed": false,
          "internalType": "string",
          "name": "_fileLocation",
          "type": "string"
        },
        {
          "indexed": false,
          "internalType": "uint256",
          "name": "_alarm",
          "type": "uint256"
        },
        {
          "indexed": false,
          "internalType": "string",
          "name": "_fileHash",
          "type": "string"
        }
      ],
      "name": "Alarm",
      "type": "event"
    },
    {
      "anonymous": false,
      "inputs": [
        {
          "indexed": true,
          "internalType": "uint256",
          "name": "alarm",
          "type": "uint256"
        }
      ],
      "name": "Helper",
      "type": "event"
    },
    {
      "inputs": [],
      "name": "alarm",
      "outputs": [
        {
          "internalType": "uint256",
          "name": "",
          "type": "uint256"
        }
      ],
      "stateMutability": "view",
      "type": "function"
    },
    {
      "inputs": [],
      "name": "createdTime",
      "outputs": [
        {
          "internalType": "uint256",
          "name": "",
          "type": "uint256"
        }
      ],
      "stateMutability": "view",
      "type": "function"
    },
    {
      "inputs": [],
      "name": "fileHash",
      "outputs": [
        {
          "internalType": "string",
          "name": "",
          "type": "string"
        }
      ],
      "stateMutability": "view",
      "type": "function"
    },
    {
      "inputs": [],
      "name": "fileLocation",
      "outputs": [
        {
          "internalType": "string",
          "name": "",
          "type": "string"
        }
      ],
      "stateMutability": "view",
      "type": "function"
    },
    {
      "inputs": [],
      "name": "finished",
      "outputs": [
        {
          "internalType": "bool",
          "name": "",
          "type": "bool"
        }
      ],
      "stateMutability": "view",
      "type": "function"
    },
    {
      "inputs": [],
      "name": "name",
      "outputs": [
        {
          "internalType": "string",
          "name": "",
          "type": "string"
        }
      ],
      "stateMutability": "view",
      "type": "function"
    },
    {
      "inputs": [],
      "name": "owner",
      "outputs": [
        {
          "internalType": "address",
          "name": "",
          "type": "address"
        }
      ],
      "stateMutability": "view",
      "type": "function"
    },
    {
      "inputs": [],
      "name": "alarmRings",
      "outputs": [],
      "stateMutability": "nonpayable",
      "type": "function"
    },
    {
      "inputs": [],
      "name": "emitHelper",
      "outputs": [],
      "stateMutability": "nonpayable",
      "type": "function"
    },
    {
      "inputs": [
        {
          "internalType": "bool",
          "name": "_finished",
          "type": "bool"
        }
      ],
      "name": "timer",
      "outputs": [],
      "stateMutability": "nonpayable",
      "type": "function"
    }
  ],
  "bytecode": "0x6080604052336000806101000a81548173ffffffffffffffffffffffffffffffffffffffff021916908373ffffffffffffffffffffffffffffffffffffffff1602179055503480156200005157600080fd5b506040516200102138038062001021833981810160405281019062000077919062000478565b81600081116200008657600080fd5b85600060146101000a81548160ff0219169083151502179055508460019080519060200190620000b8929190620001b3565b508360029080519060200190620000d1929190620001b3565b50826003819055508160049080519060200190620000f1929190620001b3565b5042600581905550620001096200012560201b60201c565b620001196200015660201b60201c565b505050505050620006e7565b6003547f7d20319205a2f26e45d6f5f401b1c0011a232f5482fe5f9396a1aa5281003d8360405160405180910390a2565b3373ffffffffffffffffffffffffffffffffffffffff167f167e054c28939ba67f134db2d028d249b4ad7b9787e7f0ed3c88843a8c9f6d33600160026003546004604051620001a9949392919062000685565b60405180910390a2565b828054620001c1906200058c565b90600052602060002090601f016020900481019282620001e5576000855562000231565b82601f106200020057805160ff191683800117855562000231565b8280016001018555821562000231579182015b828111156200023057825182559160200191906001019062000213565b5b50905062000240919062000244565b5090565b5b808211156200025f57600081600090555060010162000245565b5090565b6000604051905090565b600080fd5b600080fd5b60008115159050919050565b6200028e8162000277565b81146200029a57600080fd5b50565b600081519050620002ae8162000283565b92915050565b600080fd5b600080fd5b6000601f19601f8301169050919050565b7f4e487b7100000000000000000000000000000000000000000000000000000000600052604160045260246000fd5b6200030982620002be565b810181811067ffffffffffffffff821117156200032b576200032a620002cf565b5b80604052505050565b60006200034062000263565b90506200034e8282620002fe565b919050565b600067ffffffffffffffff821115620003715762000370620002cf565b5b6200037c82620002be565b9050602081019050919050565b60005b83811015620003a95780820151818401526020810190506200038c565b83811115620003b9576000848401525b50505050565b6000620003d6620003d08462000353565b62000334565b905082815260208101848484011115620003f557620003f4620002b9565b5b6200040284828562000389565b509392505050565b600082601f830112620004225762000421620002b4565b5b815162000434848260208601620003bf565b91505092915050565b6000819050919050565b62000452816200043d565b81146200045e57600080fd5b50565b600081519050620004728162000447565b92915050565b600080600080600060a086880312156200049757620004966200026d565b5b6000620004a7888289016200029d565b955050602086015167ffffffffffffffff811115620004cb57620004ca62000272565b5b620004d9888289016200040a565b945050604086015167ffffffffffffffff811115620004fd57620004fc62000272565b5b6200050b888289016200040a565b93505060606200051e8882890162000461565b925050608086015167ffffffffffffffff81111562000542576200054162000272565b5b62000550888289016200040a565b9150509295509295909350565b7f4e487b7100000000000000000000000000000000000000000000000000000000600052602260045260246000fd5b60006002820490506001821680620005a557607f821691505b60208210811415620005bc57620005bb6200055d565b5b50919050565b600082825260208201905092915050565b60008190508160005260206000209050919050565b60008154620005f7816200058c565b620006038186620005c2565b9450600182166000811462000621576001811462000634576200066b565b60ff19831686526020860193506200066b565b6200063f85620005d3565b60005b83811015620006635781548189015260018201915060208101905062000642565b808801955050505b50505092915050565b6200067f816200043d565b82525050565b60006080820190508181036000830152620006a18187620005e8565b90508181036020830152620006b78186620005e8565b9050620006c8604083018562000674565b8181036060830152620006dc8184620005e8565b905095945050505050565b61092a80620006f76000396000f3fe608060405234801561001057600080fd5b506004361061009e5760003560e01c80638da5cb5b116100665780638da5cb5b1461010f578063b2ee7ddc1461012d578063b2f4bdb01461014b578063bb7e8c2814610169578063bef4876b146101875761009e565b806306fdde03146100a357806324c8c698146100c157806343e29423146100df57806366c52be6146100e9578063772dd315146100f3575b600080fd5b6100ab6101a5565b6040516100b89190610539565b60405180910390f35b6100c9610233565b6040516100d69190610539565b60405180910390f35b6100e76102c1565b005b6100f16102f2565b005b61010d60048036038101906101089190610598565b61034d565b005b6101176103cf565b6040516101249190610606565b60405180910390f35b6101356103f3565b6040516101429190610539565b60405180910390f35b610153610481565b604051610160919061063a565b60405180910390f35b610171610487565b60405161017e919061063a565b60405180910390f35b61018f61048d565b60405161019c9190610664565b60405180910390f35b600180546101b2906106ae565b80601f01602080910402602001604051908101604052809291908181526020018280546101de906106ae565b801561022b5780601f106102005761010080835404028352916020019161022b565b820191906000526020600020905b81548152906001019060200180831161020e57829003601f168201915b505050505081565b60048054610240906106ae565b80601f016020809104026020016040519081016040528092919081815260200182805461026c906106ae565b80156102b95780601f1061028e576101008083540402835291602001916102b9565b820191906000526020600020905b81548152906001019060200180831161029c57829003601f168201915b505050505081565b6003547f7d20319205a2f26e45d6f5f401b1c0011a232f5482fe5f9396a1aa5281003d8360405160405180910390a2565b3373ffffffffffffffffffffffffffffffffffffffff167f167e054c28939ba67f134db2d028d249b4ad7b9787e7f0ed3c88843a8c9f6d336001600260035460046040516103439493929190610775565b60405180910390a2565b600160035461035c91906107fe565b6005546103699190610832565b42116103aa576040517f08c379a00000000000000000000000000000000000000000000000000000000081526004016103a1906108d4565b60405180910390fd5b80600660006101000a81548160ff0219169083151502179055506103cc6102f2565b50565b60008054906101000a900473ffffffffffffffffffffffffffffffffffffffff1681565b60028054610400906106ae565b80601f016020809104026020016040519081016040528092919081815260200182805461042c906106ae565b80156104795780601f1061044e57610100808354040283529160200191610479565b820191906000526020600020905b81548152906001019060200180831161045c57829003601f168201915b505050505081565b60055481565b60035481565b600660009054906101000a900460ff1681565b600081519050919050565b600082825260208201905092915050565b60005b838110156104da5780820151818401526020810190506104bf565b838111156104e9576000848401525b50505050565b6000601f19601f8301169050919050565b600061050b826104a0565b61051581856104ab565b93506105258185602086016104bc565b61052e816104ef565b840191505092915050565b600060208201905081810360008301526105538184610500565b905092915050565b600080fd5b60008115159050919050565b61057581610560565b811461058057600080fd5b50565b6000813590506105928161056c565b92915050565b6000602082840312156105ae576105ad61055b565b5b60006105bc84828501610583565b91505092915050565b600073ffffffffffffffffffffffffffffffffffffffff82169050919050565b60006105f0826105c5565b9050919050565b610600816105e5565b82525050565b600060208201905061061b60008301846105f7565b92915050565b6000819050919050565b61063481610621565b82525050565b600060208201905061064f600083018461062b565b92915050565b61065e81610560565b82525050565b60006020820190506106796000830184610655565b92915050565b7f4e487b7100000000000000000000000000000000000000000000000000000000600052602260045260246000fd5b600060028204905060018216806106c657607f821691505b602082108114156106da576106d961067f565b5b50919050565b60008190508160005260206000209050919050565b60008154610702816106ae565b61070c81866104ab565b9450600182166000811461072757600181146107395761076c565b60ff198316865260208601935061076c565b610742856106e0565b60005b8381101561076457815481890152600182019150602081019050610745565b808801955050505b50505092915050565b6000608082019050818103600083015261078f81876106f5565b905081810360208301526107a381866106f5565b90506107b2604083018561062b565b81810360608301526107c481846106f5565b905095945050505050565b7f4e487b7100000000000000000000000000000000000000000000000000000000600052601160045260246000fd5b600061080982610621565b915061081483610621565b925082821015610827576108266107cf565b5b828203905092915050565b600061083d82610621565b915061084883610621565b9250827fffffffffffffffffffffffffffffffffffffffffffffffffffffffffffffffff0382111561087d5761087c6107cf565b5b828201905092915050565b7f54696d6520686173206e6f742079657420706173736564000000000000000000600082015250565b60006108be6017836104ab565b91506108c982610888565b602082019050919050565b600060208201905081810360008301526108ed816108b1565b905091905056fea2646970667358221220658c1902ffb5859990ae58fc9d4e69ece08891afb078a21c0268b3debd8fa58a64736f6c63430008090033",
  "immutableReferences": {},
  "source": "// SPDX-License-Identifier: MIT\r\npragma solidity 0.8.9;\r\n\r\ncontract FileManager {\r\n  // properties\r\n  address public owner = msg.sender;\r\n  bool private isRestrictedToOwner;\r\n\r\n  string public name;\r\n  string public fileLocation;\r\n  uint public alarm;\r\n  string public fileHash;  // the field fileHash can stay public since the only way to change the value is through a function which there isn't\r\n  \r\n  uint public createdTime;\r\n  bool public finished;\r\n\r\n  // event properties\r\n  event Alarm(address indexed _owner, string _name, string _fileLocation, uint _alarm, string _fileHash);\r\n  event Helper(uint indexed alarm); // Helper Event\r\n\r\n  // constructors\r\n  constructor(bool _isRestrictedToOwner, string memory _name, string memory _fileLocation, uint _alarm, string memory _fileHash)\r\n  timerGreaterZero(_alarm) {\r\n    isRestrictedToOwner = _isRestrictedToOwner;\r\n    name = _name;\r\n    fileLocation = _fileLocation;\r\n    alarm = _alarm;\r\n    fileHash = _fileHash;\r\n    createdTime = block.timestamp;\r\n    emitHelper();\r\n    alarmRings();\r\n  }\r\n\r\n  // modifiers\r\n  modifier restricted() {\r\n    require(\r\n      msg.sender == owner || !isRestrictedToOwner,\r\n      \"This function is restricted to the contract's owner\"\r\n    );\r\n    _;\r\n  }\r\n\r\n  modifier timerGreaterZero(uint _alarm){\r\n    require(_alarm > 0);\r\n    _;\r\n  }\r\n\r\n  // event emits\r\n  function alarmRings() public {\r\n    emit Alarm(msg.sender, name, fileLocation, alarm, fileHash);\r\n  }\r\n\r\n  function emitHelper() public{ // external geht hier nicht weil das kann der constructor nicht callen, daher public\r\n    emit Helper(alarm);\r\n  }\r\n\r\n  function timer(bool _finished) external{\r\n      require(block.timestamp > createdTime + (alarm - 1), \"Time has not yet passed\");\r\n      finished = _finished;\r\n      alarmRings();\r\n  }\r\n}\r\n",
  "sourcePath": "D:\\Documents\\GitHub\\Diplomarbeit\\Solidity Beispiele Moritz Troestl\\File System Manual Events\\contracts\\FileManager.sol",
  "compiler": {
    "name": "solc",
    "version": "0.8.9+commit.e5eed63a.Emscripten.clang"
  },
  "schemaVersion": "3.4.3",
  "updatedAt": "2021-11-24T09:20:10.295Z",
  "devdoc": {
    "kind": "dev",
    "methods": {},
    "version": 1
  },
  "userdoc": {
    "kind": "user",
    "methods": {},
    "version": 1
  }
}