{
  "contractName": "MyContract",
  "abi": [
    {
      "constant": true,
      "inputs": [],
      "name": "functionCalled",
      "outputs": [
        {
          "name": "",
          "type": "string"
        }
      ],
      "payable": false,
      "stateMutability": "view",
      "type": "function"
    },
    {
      "payable": true,
      "stateMutability": "payable",
      "type": "fallback"
    },
    {
      "constant": true,
      "inputs": [],
      "name": "getData",
      "outputs": [
        {
          "name": "",
          "type": "uint256"
        }
      ],
      "payable": false,
      "stateMutability": "view",
      "type": "function"
    },
    {
      "constant": false,
      "inputs": [
        {
          "name": "_data",
          "type": "uint256"
        }
      ],
      "name": "setData",
      "outputs": [],
      "payable": false,
      "stateMutability": "nonpayable",
      "type": "function"
    },
    {
      "constant": false,
      "inputs": [],
      "name": "sendEther",
      "outputs": [],
      "payable": true,
      "stateMutability": "payable",
      "type": "function"
    }
  ],
  "bytecode": "0x608060405234801561001057600080fd5b50610380806100206000396000f3fe608060405260043610610062576000357c0100000000000000000000000000000000000000000000000000000000900463ffffffff1680630e29df22146100b05780633bc5de30146100ba5780635b4b73a9146100e5578063cc81afc814610120575b6040805190810160405280600881526020017f66616c6c6261636b000000000000000000000000000000000000000000000000815250600190805190602001906100ad9291906102af565b50005b6100b86101b0565b005b3480156100c657600080fd5b506100cf6101fe565b6040518082815260200191505060405180910390f35b3480156100f157600080fd5b5061011e6004803603602081101561010857600080fd5b8101908080359060200190929190505050610207565b005b34801561012c57600080fd5b50610135610211565b6040518080602001828103825283818151815260200191508051906020019080838360005b8381101561017557808201518184015260208101905061015a565b50505050905090810190601f1680156101a25780820380516001836020036101000a031916815260200191505b509250505060405180910390f35b6040805190810160405280600981526020017f73656e6445746865720000000000000000000000000000000000000000000000815250600190805190602001906101fb9291906102af565b50565b60008054905090565b8060008190555050565b60018054600181600116156101000203166002900480601f0160208091040260200160405190810160405280929190818152602001828054600181600116156101000203166002900480156102a75780601f1061027c576101008083540402835291602001916102a7565b820191906000526020600020905b81548152906001019060200180831161028a57829003601f168201915b505050505081565b828054600181600116156101000203166002900490600052602060002090601f016020900481019282601f106102f057805160ff191683800117855561031e565b8280016001018555821561031e579182015b8281111561031d578251825591602001919060010190610302565b5b50905061032b919061032f565b5090565b61035191905b8082111561034d576000816000905550600101610335565b5090565b9056fea165627a7a7230582080d2e801c6dcbc032b8f5cbee56d4dd1eaf7061c1e05dca617482c36459d5e830029",
  "source": "// SPDX-License-Identifier: MIT\r\npragma solidity 0.5.0;\r\n\r\ncontract MyContract {\r\n    uint data;\r\n    string public functionCalled;\r\n\r\n    function getData() external view returns(uint) {\r\n        return data;\r\n    }\r\n\r\n    function setData(uint _data) external {\r\n        data = _data;\r\n    }\r\n\r\n    function setDataPrivate(uint _data) private {\r\n        data = _data + 10;\r\n    }\r\n\r\n    function sendEther() external payable {\r\n        functionCalled = 'sendEther';\r\n    }\r\n\r\n    function () external payable {\r\n        functionCalled = 'fallback';\r\n    }\r\n}",
  "sourcePath": "G:\\Documents\\GitHub\\Diplomarbeit\\Solidity Beispiele Moritz Troestl\\Web3 Project\\contracts\\MyContract.sol",
  "compiler": {
    "name": "solc",
    "version": "0.5.0+commit.1d4f565a.Emscripten.clang"
  },
  "schemaVersion": "3.4.3",
  "updatedAt": "2021-10-09T19:53:55.762Z",
  "networkType": "ethereum",
  "devdoc": {
    "methods": {}
  },
  "userdoc": {
    "methods": {}
  }
}