{
  "contractName": "HelloWorld",
  "abi": [
    {
      "inputs": [
        {
          "internalType": "string",
          "name": "_message",
          "type": "string"
        }
      ],
      "stateMutability": "nonpayable",
      "type": "constructor"
    },
    {
      "inputs": [],
      "name": "message",
      "outputs": [
        {
          "internalType": "string",
          "name": "",
          "type": "string"
        }
      ],
      "stateMutability": "view",
      "type": "function",
      "constant": true
    },
    {
      "inputs": [],
      "name": "owner",
      "outputs": [
        {
          "internalType": "address",
          "name": "",
          "type": "address"
        }
      ],
      "stateMutability": "view",
      "type": "function",
      "constant": true
    },
    {
      "inputs": [],
      "name": "getMessage",
      "outputs": [
        {
          "internalType": "string",
          "name": "",
          "type": "string"
        }
      ],
      "stateMutability": "view",
      "type": "function",
      "constant": true
    },
    {
      "inputs": [
        {
          "internalType": "string",
          "name": "_message",
          "type": "string"
        }
      ],
      "name": "setMessage",
      "outputs": [],
      "stateMutability": "payable",
      "type": "function",
      "payable": true
    }
  ],
  "bytecode": "0x60806040523480156200001157600080fd5b50604051620009e4380380620009e48339818101604052810190620000379190620002e5565b80600090805190602001906200004f92919062000098565b5033600160006101000a81548173ffffffffffffffffffffffffffffffffffffffff021916908373ffffffffffffffffffffffffffffffffffffffff160217905550506200039b565b828054620000a69062000365565b90600052602060002090601f016020900481019282620000ca576000855562000116565b82601f10620000e557805160ff191683800117855562000116565b8280016001018555821562000116579182015b8281111562000115578251825591602001919060010190620000f8565b5b50905062000125919062000129565b5090565b5b80821115620001445760008160009055506001016200012a565b5090565b6000604051905090565b600080fd5b600080fd5b600080fd5b600080fd5b6000601f19601f8301169050919050565b7f4e487b7100000000000000000000000000000000000000000000000000000000600052604160045260246000fd5b620001b18262000166565b810181811067ffffffffffffffff82111715620001d357620001d262000177565b5b80604052505050565b6000620001e862000148565b9050620001f68282620001a6565b919050565b600067ffffffffffffffff82111562000219576200021862000177565b5b620002248262000166565b9050602081019050919050565b60005b838110156200025157808201518184015260208101905062000234565b8381111562000261576000848401525b50505050565b60006200027e6200027884620001fb565b620001dc565b9050828152602081018484840111156200029d576200029c62000161565b5b620002aa84828562000231565b509392505050565b600082601f830112620002ca57620002c96200015c565b5b8151620002dc84826020860162000267565b91505092915050565b600060208284031215620002fe57620002fd62000152565b5b600082015167ffffffffffffffff8111156200031f576200031e62000157565b5b6200032d84828501620002b2565b91505092915050565b7f4e487b7100000000000000000000000000000000000000000000000000000000600052602260045260246000fd5b600060028204905060018216806200037e57607f821691505b6020821081141562000395576200039462000336565b5b50919050565b61063980620003ab6000396000f3fe60806040526004361061003f5760003560e01c8063368b8772146100445780638da5cb5b14610060578063ce6d41de1461008b578063e21f37ce146100b6575b600080fd5b61005e60048036038101906100599190610453565b6100e1565b005b34801561006c57600080fd5b50610075610110565b60405161008291906104dd565b60405180910390f35b34801561009757600080fd5b506100a0610136565b6040516100ad9190610580565b60405180910390f35b3480156100c257600080fd5b506100cb6101c8565b6040516100d89190610580565b60405180910390f35b670de0b6b3a76400003410156100f657600080fd5b806000908051906020019061010c929190610256565b5050565b600160009054906101000a900473ffffffffffffffffffffffffffffffffffffffff1681565b606060008054610145906105d1565b80601f0160208091040260200160405190810160405280929190818152602001828054610171906105d1565b80156101be5780601f10610193576101008083540402835291602001916101be565b820191906000526020600020905b8154815290600101906020018083116101a157829003601f168201915b5050505050905090565b600080546101d5906105d1565b80601f0160208091040260200160405190810160405280929190818152602001828054610201906105d1565b801561024e5780601f106102235761010080835404028352916020019161024e565b820191906000526020600020905b81548152906001019060200180831161023157829003601f168201915b505050505081565b828054610262906105d1565b90600052602060002090601f01602090048101928261028457600085556102cb565b82601f1061029d57805160ff19168380011785556102cb565b828001600101855582156102cb579182015b828111156102ca5782518255916020019190600101906102af565b5b5090506102d891906102dc565b5090565b5b808211156102f55760008160009055506001016102dd565b5090565b6000604051905090565b600080fd5b600080fd5b600080fd5b600080fd5b6000601f19601f8301169050919050565b7f4e487b7100000000000000000000000000000000000000000000000000000000600052604160045260246000fd5b61036082610317565b810181811067ffffffffffffffff8211171561037f5761037e610328565b5b80604052505050565b60006103926102f9565b905061039e8282610357565b919050565b600067ffffffffffffffff8211156103be576103bd610328565b5b6103c782610317565b9050602081019050919050565b82818337600083830152505050565b60006103f66103f1846103a3565b610388565b90508281526020810184848401111561041257610411610312565b5b61041d8482856103d4565b509392505050565b600082601f83011261043a5761043961030d565b5b813561044a8482602086016103e3565b91505092915050565b60006020828403121561046957610468610303565b5b600082013567ffffffffffffffff81111561048757610486610308565b5b61049384828501610425565b91505092915050565b600073ffffffffffffffffffffffffffffffffffffffff82169050919050565b60006104c78261049c565b9050919050565b6104d7816104bc565b82525050565b60006020820190506104f260008301846104ce565b92915050565b600081519050919050565b600082825260208201905092915050565b60005b83811015610532578082015181840152602081019050610517565b83811115610541576000848401525b50505050565b6000610552826104f8565b61055c8185610503565b935061056c818560208601610514565b61057581610317565b840191505092915050565b6000602082019050818103600083015261059a8184610547565b905092915050565b7f4e487b7100000000000000000000000000000000000000000000000000000000600052602260045260246000fd5b600060028204905060018216806105e957607f821691505b602082108114156105fd576105fc6105a2565b5b5091905056fea2646970667358221220fef55ecc3faa3d9c249c0000b9ed2e9084ba9bbe065e32608d85f39de396b4e764736f6c63430008090033",
  "immutableReferences": {},
  "source": "// SPDX-License-Identifier: MIT\r\npragma solidity 0.8.9;\r\n\r\ncontract HelloWorld {\r\n\r\n    string public message;\r\n    address public owner;\r\n\r\n    constructor(string memory _message){\r\n        message = _message;\r\n        owner = msg.sender;\r\n    }\r\n\r\n    function getMessage() public view returns (string memory){\r\n        return message;\r\n    }\r\n    function setMessage(string memory _message) public payable {\r\n        require(msg.value >= 1 ether);\r\n        message = _message;\r\n    }\r\n}",
  "sourcePath": "G:\\Diplomarbeit\\first solidity project\\contracts\\HelloWorld.sol",
  "compiler": {
    "name": "solc",
    "version": "0.8.9+commit.e5eed63a.Emscripten.clang"
  },
  "schemaVersion": "3.4.3",
  "updatedAt": "2021-10-06T15:18:48.522Z",
  "networkType": "ethereum",
  "devdoc": {
    "kind": "dev",
    "methods": {},
    "version": 1
  },
  "userdoc": {
    "kind": "user",
    "methods": {},
    "version": 1
  }
}