{
  "contractName": "MyContract",
  "abi": [
    {
      "anonymous": false,
      "inputs": [
        {
          "indexed": true,
          "name": "id",
          "type": "uint256"
        },
        {
          "indexed": true,
          "name": "date",
          "type": "uint256"
        },
        {
          "indexed": true,
          "name": "value",
          "type": "string"
        }
      ],
      "name": "MyEvent",
      "type": "event"
    },
    {
      "constant": false,
      "inputs": [
        {
          "name": "value",
          "type": "string"
        }
      ],
      "name": "emitEvent",
      "outputs": [],
      "payable": false,
      "stateMutability": "nonpayable",
      "type": "function"
    }
  ],
  "bytecode": "0x608060405234801561001057600080fd5b5061015c806100206000396000f3fe608060405260043610610041576000357c0100000000000000000000000000000000000000000000000000000000900463ffffffff168063982296a814610046575b600080fd5b34801561005257600080fd5b506100ca6004803603602081101561006957600080fd5b810190808035906020019064010000000081111561008657600080fd5b82018360208201111561009857600080fd5b803590602001918460018302840111640100000000831117156100ba57600080fd5b90919293919293905050506100cc565b005b81816040518083838082843780830192505050925050506040518091039020426000547fb471d59b9e8fe78ab0670c11fe84df6ab431139b43533ab6764e0b15b8d6c39a60405160405180910390a46000808154809291906001019190505550505056fea165627a7a72305820ae39a31b6a4a3994efb484e554ed6df07fec882265d1d5302ac4f3bceb0d6cdd0029",
  "source": "// SPDX-License-Identifier: MIT\r\npragma solidity ^0.5.0;\r\n\r\ncontract MyContract {\r\n    // dates are identified as integers\r\n    // limit of 3 indexed fields\r\n    event MyEvent (\r\n        uint indexed id,\r\n        uint indexed date,\r\n        string indexed value\r\n    );\r\n    uint nextId;\r\n\r\n    function emitEvent(string calldata value) external {\r\n        emit MyEvent(nextId, now, value);\r\n        nextId++;\r\n    }\r\n}",
  "sourcePath": "D:\\Documents\\GitHub\\Diplomarbeit\\Solidity Beispiele Moritz Troestl\\Smart Contracts Events\\contracts\\MyContract.sol",
  "compiler": {
    "name": "solc",
    "version": "0.5.0+commit.1d4f565a.Emscripten.clang"
  },
  "schemaVersion": "3.4.3",
  "updatedAt": "2021-10-13T07:32:17.010Z",
  "networkType": "ethereum",
  "devdoc": {
    "methods": {}
  },
  "userdoc": {
    "methods": {}
  }
}